{
  "contractName": "AcademicRecords",
  "abi": [
    {
      "anonymous": false,
      "inputs": [
        {
          "indexed": true,
          "internalType": "address",
          "name": "learnerAddress",
          "type": "address"
        },
        {
          "indexed": false,
          "internalType": "string",
          "name": "fullName",
          "type": "string"
        }
      ],
      "name": "LearnerAdded",
      "type": "event"
    },
    {
      "inputs": [
        {
          "internalType": "address",
          "name": "learnerAddress",
          "type": "address"
        },
        {
          "internalType": "string",
          "name": "fullName",
          "type": "string"
        },
        {
          "internalType": "uint256",
          "name": "grade",
          "type": "uint256"
        },
        {
          "internalType": "bool",
          "name": "isPassed",
          "type": "bool"
        },
        {
          "internalType": "string",
          "name": "subject",
          "type": "string"
        }
      ],
      "name": "registerLearner",
      "outputs": [],
      "stateMutability": "nonpayable",
      "type": "function"
    },
    {
      "inputs": [
        {
          "internalType": "address",
          "name": "learnerAddress",
          "type": "address"
        }
      ],
      "name": "fetchLearnerName",
      "outputs": [
        {
          "internalType": "string",
          "name": "",
          "type": "string"
        }
      ],
      "stateMutability": "view",
      "type": "function"
    },
    {
      "inputs": [
        {
          "internalType": "address",
          "name": "learnerAddress",
          "type": "address"
        }
      ],
      "name": "fetchLearnerGrade",
      "outputs": [
        {
          "internalType": "uint256",
          "name": "",
          "type": "uint256"
        }
      ],
      "stateMutability": "view",
      "type": "function"
    },
    {
      "inputs": [
        {
          "internalType": "address",
          "name": "learnerAddress",
          "type": "address"
        }
      ],
      "name": "checkLearnerPassStatus",
      "outputs": [
        {
          "internalType": "bool",
          "name": "",
          "type": "bool"
        }
      ],
      "stateMutability": "view",
      "type": "function"
    },
    {
      "inputs": [
        {
          "internalType": "address",
          "name": "learnerAddress",
          "type": "address"
        }
      ],
      "name": "fetchLearnerSubject",
      "outputs": [
        {
          "internalType": "string",
          "name": "",
          "type": "string"
        }
      ],
      "stateMutability": "view",
      "type": "function"
    },
    {
      "inputs": [
        {
          "internalType": "address",
          "name": "learnerAddress",
          "type": "address"
        }
      ],
      "name": "fetchLearnerInfo",
      "outputs": [
        {
          "internalType": "string",
          "name": "fullName",
          "type": "string"
        },
        {
          "internalType": "uint256",
          "name": "grade",
          "type": "uint256"
        },
        {
          "internalType": "bool",
          "name": "isPassed",
          "type": "bool"
        },
        {
          "internalType": "string",
          "name": "subject",
          "type": "string"
        }
      ],
      "stateMutability": "view",
      "type": "function"
    }
  ],
  "bytecode": "0x608060405234801561000f575f80fd5b50610d8f8061001d5f395ff3fe608060405234801561000f575f80fd5b5060043610610060575f3560e01c80630bdf874f146100645780636890e442146100805780637a3cefdd146100b35780639d7a5e0a146100e3578063d160c5b214610113578063d48b398914610143575b5f80fd5b61007e6004803603810190610079919061087b565b610173565b005b61009a6004803603810190610095919061092a565b61027d565b6040516100aa94939291906109ed565b60405180910390f35b6100cd60048036038101906100c8919061092a565b610433565b6040516100da9190610a3e565b60405180910390f35b6100fd60048036038101906100f8919061092a565b61047b565b60405161010a9190610a57565b60405180910390f35b61012d6004803603810190610128919061092a565b610549565b60405161013a9190610a77565b60405180910390f35b61015d6004803603810190610158919061092a565b61059d565b60405161016a9190610a57565b60405180910390f35b60405180608001604052808581526020018481526020018315158152602001828152505f808773ffffffffffffffffffffffffffffffffffffffff1673ffffffffffffffffffffffffffffffffffffffff1681526020019081526020015f205f820151815f0190816101e59190610c8a565b50602082015181600101556040820151816002015f6101000a81548160ff02191690831515021790555060608201518160030190816102249190610c8a565b509050508473ffffffffffffffffffffffffffffffffffffffff167f5e3f585b6c92e846e2c9d214088af3c91eb2dc3ae8348fcb150be4a1482007678560405161026e9190610a57565b60405180910390a25050505050565b60605f8060605f805f8773ffffffffffffffffffffffffffffffffffffffff1673ffffffffffffffffffffffffffffffffffffffff1681526020019081526020015f206040518060800160405290815f820180546102da90610abd565b80601f016020809104026020016040519081016040528092919081815260200182805461030690610abd565b80156103515780601f1061032857610100808354040283529160200191610351565b820191905f5260205f20905b81548152906001019060200180831161033457829003601f168201915b5050505050815260200160018201548152602001600282015f9054906101000a900460ff1615151515815260200160038201805461038e90610abd565b80601f01602080910402602001604051908101604052809291908181526020018280546103ba90610abd565b80156104055780601f106103dc57610100808354040283529160200191610405565b820191905f5260205f20905b8154815290600101906020018083116103e857829003601f168201915b5050505050815250509050805f01518160200151826040015183606001519450945094509450509193509193565b5f805f8373ffffffffffffffffffffffffffffffffffffffff1673ffffffffffffffffffffffffffffffffffffffff1681526020019081526020015f20600101549050919050565b60605f808373ffffffffffffffffffffffffffffffffffffffff1673ffffffffffffffffffffffffffffffffffffffff1681526020019081526020015f205f0180546104c690610abd565b80601f01602080910402602001604051908101604052809291908181526020018280546104f290610abd565b801561053d5780601f106105145761010080835404028352916020019161053d565b820191905f5260205f20905b81548152906001019060200180831161052057829003601f168201915b50505050509050919050565b5f805f8373ffffffffffffffffffffffffffffffffffffffff1673ffffffffffffffffffffffffffffffffffffffff1681526020019081526020015f206002015f9054906101000a900460ff169050919050565b60605f808373ffffffffffffffffffffffffffffffffffffffff1673ffffffffffffffffffffffffffffffffffffffff1681526020019081526020015f2060030180546105e990610abd565b80601f016020809104026020016040519081016040528092919081815260200182805461061590610abd565b80156106605780601f1061063757610100808354040283529160200191610660565b820191905f5260205f20905b81548152906001019060200180831161064357829003601f168201915b50505050509050919050565b5f604051905090565b5f80fd5b5f80fd5b5f73ffffffffffffffffffffffffffffffffffffffff82169050919050565b5f6106a68261067d565b9050919050565b6106b68161069c565b81146106c0575f80fd5b50565b5f813590506106d1816106ad565b92915050565b5f80fd5b5f80fd5b5f601f19601f8301169050919050565b7f4e487b71000000000000000000000000000000000000000000000000000000005f52604160045260245ffd5b610725826106df565b810181811067ffffffffffffffff82111715610744576107436106ef565b5b80604052505050565b5f61075661066c565b9050610762828261071c565b919050565b5f67ffffffffffffffff821115610781576107806106ef565b5b61078a826106df565b9050602081019050919050565b828183375f83830152505050565b5f6107b76107b284610767565b61074d565b9050828152602081018484840111156107d3576107d26106db565b5b6107de848285610797565b509392505050565b5f82601f8301126107fa576107f96106d7565b5b813561080a8482602086016107a5565b91505092915050565b5f819050919050565b61082581610813565b811461082f575f80fd5b50565b5f813590506108408161081c565b92915050565b5f8115159050919050565b61085a81610846565b8114610864575f80fd5b50565b5f8135905061087581610851565b92915050565b5f805f805f60a0868803121561089457610893610675565b5b5f6108a1888289016106c3565b955050602086013567ffffffffffffffff8111156108c2576108c1610679565b5b6108ce888289016107e6565b94505060406108df88828901610832565b93505060606108f088828901610867565b925050608086013567ffffffffffffffff81111561091157610910610679565b5b61091d888289016107e6565b9150509295509295909350565b5f6020828403121561093f5761093e610675565b5b5f61094c848285016106c3565b91505092915050565b5f81519050919050565b5f82825260208201905092915050565b5f5b8381101561098c578082015181840152602081019050610971565b5f8484015250505050565b5f6109a182610955565b6109ab818561095f565b93506109bb81856020860161096f565b6109c4816106df565b840191505092915050565b6109d881610813565b82525050565b6109e781610846565b82525050565b5f6080820190508181035f830152610a058187610997565b9050610a1460208301866109cf565b610a2160408301856109de565b8181036060830152610a338184610997565b905095945050505050565b5f602082019050610a515f8301846109cf565b92915050565b5f6020820190508181035f830152610a6f8184610997565b905092915050565b5f602082019050610a8a5f8301846109de565b92915050565b7f4e487b71000000000000000000000000000000000000000000000000000000005f52602260045260245ffd5b5f6002820490506001821680610ad457607f821691505b602082108103610ae757610ae6610a90565b5b50919050565b5f819050815f5260205f209050919050565b5f6020601f8301049050919050565b5f82821b905092915050565b5f60088302610b497fffffffffffffffffffffffffffffffffffffffffffffffffffffffffffffffff82610b0e565b610b538683610b0e565b95508019841693508086168417925050509392505050565b5f819050919050565b5f610b8e610b89610b8484610813565b610b6b565b610813565b9050919050565b5f819050919050565b610ba783610b74565b610bbb610bb382610b95565b848454610b1a565b825550505050565b5f90565b610bcf610bc3565b610bda818484610b9e565b505050565b5b81811015610bfd57610bf25f82610bc7565b600181019050610be0565b5050565b601f821115610c4257610c1381610aed565b610c1c84610aff565b81016020851015610c2b578190505b610c3f610c3785610aff565b830182610bdf565b50505b505050565b5f82821c905092915050565b5f610c625f1984600802610c47565b1980831691505092915050565b5f610c7a8383610c53565b9150826002028217905092915050565b610c9382610955565b67ffffffffffffffff811115610cac57610cab6106ef565b5b610cb68254610abd565b610cc1828285610c01565b5f60209050601f831160018114610cf2575f8415610ce0578287015190505b610cea8582610c6f565b865550610d51565b601f198416610d0086610aed565b5f5b82811015610d2757848901518255600182019150602085019450602081019050610d02565b86831015610d445784890151610d40601f891682610c53565b8355505b6001600288020188555050505b50505050505056fea264697066735822122018262c2061cb50542bb9c8e9fa208ffdc769435026e9a9da24f3708f3f1e978664736f6c63430008150033",
  "immutableReferences": {},
  "source": "// SPDX-License-Identifier: MIT\r\npragma solidity ^0.8.7;\r\n\r\ncontract AcademicRecords {\r\n    struct Learner {\r\n        string fullName;\r\n        uint grade;\r\n        bool isPassed;\r\n        string subject;\r\n    }\r\n\r\n    mapping(address => Learner) private learnerRecords;\r\n\r\n    event LearnerAdded(address indexed learnerAddress, string fullName);\r\n\r\n    function registerLearner(\r\n        address learnerAddress,\r\n        string memory fullName,\r\n        uint grade,\r\n        bool isPassed,\r\n        string memory subject\r\n    ) public {\r\n        learnerRecords[learnerAddress] = Learner(fullName, grade, isPassed, subject);\r\n        emit LearnerAdded(learnerAddress, fullName);\r\n    }\r\n\r\n    function fetchLearnerName(address learnerAddress) public view returns (string memory) {\r\n        return learnerRecords[learnerAddress].fullName;\r\n    }\r\n\r\n    function fetchLearnerGrade(address learnerAddress) public view returns (uint) {\r\n        return learnerRecords[learnerAddress].grade;\r\n    }\r\n\r\n    function checkLearnerPassStatus(address learnerAddress) public view returns (bool) {\r\n        return learnerRecords[learnerAddress].isPassed;\r\n    }\r\n\r\n    function fetchLearnerSubject(address learnerAddress) public view returns (string memory) {\r\n        return learnerRecords[learnerAddress].subject;\r\n    }\r\n\r\n    function fetchLearnerInfo(address learnerAddress)\r\n        public\r\n        view\r\n        returns (\r\n            string memory fullName,\r\n            uint grade,\r\n            bool isPassed,\r\n            string memory subject\r\n        )\r\n    {\r\n        Learner memory learner = learnerRecords[learnerAddress];\r\n        return (learner.fullName, learner.grade, learner.isPassed, learner.subject);\r\n    }\r\n}\r\n",
  "sourcePath": "C:\\Users\\akash\\Dropbox\\Camera Uploads\\My PC (LAPTOP-9H65R1BQ)\\Downloads\\Metacrafterss\\smart-contract-management\\contracts\\AcademicRecords.sol",
  "compiler": {
    "name": "solc",
    "version": "0.8.21+commit.d9974bed.Emscripten.clang"
  },
  "schemaVersion": "3.4.16",
  "updatedAt": "2024-06-28T09:03:28.482Z",
  "devdoc": {
    "kind": "dev",
    "methods": {},
    "version": 1
  },
  "userdoc": {
    "kind": "user",
    "methods": {},
    "version": 1
  }
}